:100000000000042081010000190200005D3400009E
:100010001D0200001F020000210200002302000058
:1000200000000000000000000000000025020000A9
:100030002702000000000000290200002B0200003F
:100040007D320000853200008D32000095320000C4
:100050009D320000A5320000AD320000B532000034
:10006000BD320000C5320000CD320000D5320000A4
:10007000DD320000E5320000ED320000F532000014
:10008000FD320000053300000D3300001533000081
:100090001D330000253300002D33000035330000F0
:1000A0003D330000453300004D3300005533000060
:1000B0005D330000653300006D33000075330000D0
:1000C0007D330000853300008D3300009533000040
:1000D0009D330000A5330000AD330000B5330000B0
:1000E000BD330000C5330000CD330000D533000020
:1000F000DD330000E5330000ED330000F533000090
:10010000FD330000053400000D34000015340000FC
:100110001D340000253400002D340000353400006B
:100120003D340000453400004D34000055340000DB
:10013000B44600000000002008000000B4460000A3
:100140000000000400000000B44600000000104061
:1001500000000000B4460000000004200000000081
:100160000800002020010000000000040000000042
:10017000000010400000000000000420000000000B
:1001800072B6134B134A17480360196881F3088845
:1001900082F30A8802F0F2F90F4B07E003F10C0436
:1001A0009A685968186800F01FF823460B4A934272
:1001B000F4D306E01C46596854F8080B00F023F805
:1001C0002346074A9342F5D362B603F014FBFEE7D9
:1001D0000000000000F0032030010000600100007A
:1001E0008001000008ED00E0002393420AD210B421
:1001F00050F8044B41F8044B04339342F8D35DF8B4
:10020000044B70477047002303E0002240F8042BA2
:1002100004338B42F9D37047FEE7FEE7FEE7FEE7C3
:10022000FEE7FEE7FEE7FEE7FEE7FEE7FEE7FFFF8D
:10023000B0B598B000AFF860B9607A603B60002359
:10024000FB63FB68BB63BB6B5A1CBA6300221A706A
:10025000BB68D3E90023C7E90C234FF000024FF03D
:100260000003D7E90C0103F098FD0346002B07D0EB
:10027000BB6B30221A70FB6B0133FB63FB6B1AE123
:1002800007F11003184697ED0C0B02F099FB87ED70
:10029000100B00237B650FE0786803F064FD0246D5
:1002A0000B46D7E9100102F0C7FC02460B46C7E92E
:1002B00010237B6D01337B657A6D3B689A42EBD3EB
:1002C0004FF000024FF00003D7E90C0103F0FDFDF1
:1002D0000346002B2AD04FF000027B4BD7E91001D8
:1002E00002F09CFE02460B46C7E91223386803F071
:1002F00042FD02460B4643EC112B9FED710B00F0C3
:10030000E7F853EC102BD7E9120103F0DEFD0346AA
:10031000002B3AD0D7E904014FF000026B4B02F0FA
:100320007DFE02460B46C7E904232EE04FF0000293
:10033000654BD7E9100102F097FD02460B46C7E96D
:100340001223386803F017FD02460B4643EC112BCD
:100350009FED5B0B00F0BCF853EC102B144683F0C0
:10036000004522462B46D7E9120103F084FD0346DF
:10037000002B0AD0D7E904014FF00002534B02F0E2
:1003800073FD02460B46C7E9042300237B654CE05E
:10039000786803F0E8FC02460B46D7E9120102F048
:1003A000C9FC02460B46C7E90823D7E9080103F058
:1003B00038FC02460B461046194603F0E0FC0446A2
:1003C0000D46786803F0CFFC02460B4620462946CE
:1003D00002F032FC02460B46D7E9120102F044FD5E
:1003E00002460B46C7E90623D7E9060103F0F8FBEE
:1003F0000346BB65BB6D002B04DABB6DC3F1300354
:10040000BB6502E0BB6D3033BB65D7E90823C7E9A4
:100410001223BB6B5A1CBA63BA6DD2B21A70FB6B53
:100420000133FB637B6D01337B657A6D3B689A42D8
:10043000AED3BB6B5A1CBA632E221A70FB6B01330E
:10044000FB63D7E904231046194603F0C9FB0346B2
:10045000FB65FB6D002B2AD1BB6B5A1CBA633022A3
:100460001A70FB6B0133FB6324E0FA6D7B6892FB2F
:10047000F3F3FB62FB6A7A6802FB03F3FA6DD31AAB
:10048000BB65BB6D002B04DABB6DC3F13003BB65EC
:1004900002E0BB6D3033BB65FB6AFB65BB6B5A1C6E
:1004A000BA63BA6DD2B21A70FB6B0133FB63FB6D9A
:1004B000002BDAD1FB6B18466037BD46B0BD00BFDC
:1004C00000000000000024400000E03F0000F03F7A
:1004D0002DE9F04F5BEC11AB8BB000225046594632
:1004E0003B4B55EC104B03F058FC28BB002200237B
:1004F0002046294603F0BFFC00285FD000220023DD
:100500002046294603F049FC0022D0B10023504682
:10051000594603F0B0FC002800F09C8121222D4BAD
:1005200050461A6059460022002303F036FC00288A
:1005300040F050820024284D45EC104B0BB0BDE834
:10054000F08F50465946254B03F03FFC98B91CA349
:10055000D3E900235046594603F062FC58B9594686
:10056000504603F03DFB064603F0FDFB52465B465A
:1005700003F013FC18B92122164B1A60DAE705F1D3
:1005800000431D4606F00103019300224FF0804313
:100590005046594603F001FC10B30BA3D3E90023E6
:1005A0002046294603F011FCD0B122462B462046B6
:1005B000294602F041FB04460D46BDE70190E4E701
:1005C0000000C0FFFFFFDF41408CB5781DAF154430
:1005D0000000F03F700000200000F0FF0000E0C1CC
:1005E00045EC104B09A800F023FAAEA3D3E9002391
:1005F00057EC106B3946304603F03DFC041E18BF23
:100600000124A14DE40004F1040805EBC8013246C1
:10061000D1E900013B4603F058FC002808BFA04682
:1006200008F1020405EBC4013246D1E900013B4662
:1006300003F04BFC002808BF444605EBC405D5E990
:100640000289304642464B46394602F00DFC8F4B3C
:10065000621003EBC203D3E9002302F005FC002281
:10066000CDE902018A4B3046394602F0E5FA002214
:1006700006460F4640464946854B02F0DDFA0246E3
:100680000B463046394602F0C9FC02460B46DDE90E
:10069000020102F04FFB02460B468046894602F0FB
:1006A000CBFA6FA3D3E9002306460F4602F0C4FA43
:1006B0006DA3D3E9002302F0B1FC32463B4602F0C1
:1006C000BBFA6BA3D3E9002302F0A8FC32463B46F9
:1006D00002F0B2FA68A3D3E9002302F09FFC32468D
:1006E0003B4602F0A9FA42464B4602F0A5FA64A343
:1006F000D3E9002306460F4602F09EFA099BCDE996
:100700000601C4EB0310013803F02DFB0022614BFE
:1007100002F092FA0022604BCDE9020150465946A0
:1007200002F08AFA03F05CFA03F01DFB0022594B39
:1007300002F082FA52A3D3E90023CDE90401404636
:10074000494602F079FA324604460D46DDE90601D3
:100750003B4602F063FC02460B462046294602F067
:100760005DFC42464B4602F059FC52465B4602F0A5
:1007700063FADDE9042304460D465046594602F06B
:1007800073FBDDE9022302F057FA02460B462046CE
:10079000294602F043FC00223F4B04460D4602F07E
:1007A0004BFA03F01DFA03F0DEFA0022394B02F097
:1007B00043FA06460F4602460B462046294602F0FB
:1007C00053FBDDE9042304460D46DDE9020102F096
:1007D00033FA32463B4602F021FC00222E4B804683
:1007E000894602F029FA03F0FBF903F0BCFA002273
:1007F000284B02F021FA064602460B460F464046B9
:10080000494602F031FB22462B4602F007FC00224B
:10081000214B8046894602F00FFA03F0E1F903F01C
:10082000A2FA00221B4B02F007FA02460B460446CE
:100830000D463046394602F0F1FB174B002202F01C
:10084000FBF903F0CDF9154B064698422EDA222229
:10085000134B1A60002400256EE600BFAFF3008042
:1008600028FC4ADBFD783C3FAC8D272E2449623FB3
:100870000E089E999999893F4D5555555555B53F47
:10088000F80BAE941D55DC3FC03F0000803F0000D8
:100890000000E03F0000B03F0000304020C0FFFFFC
:1008A00070000020CD3B7F669EA0E63F22462B468F
:1008B0004046494602F0D8FA0022002304460D467D
:1008C00003F0AEFA40B1204629460022524B02F016
:1008D000CBFA04460D460136002EB5BF06F10F08CF
:1008E0004FEA26184FEA281808F101084B4BC6EBCF
:1008F000081603EBC603D3E90067204638A3D3E903
:100900000023294602F098F937A3D3E9002302F027
:1009100085FB22462B4602F08FF935A3D3E900234D
:1009200002F07CFB22462B4602F086F932A3D3E983
:10093000002302F073FB22462B4602F07DF930A320
:10094000D3E9002302F06AFB22462B4602F074F939
:100950002DA3D3E9002302F061FB22462B4602F0CF
:100960006BF92BA3D3E9002302F058FB22462B4658
:1009700002F062F932463B4602F05EF90B4602464F
:100980003946304602F04AFB41EC100B09A800F052
:100990004FF8099B08EB0300B0F5806F09DD2222B8
:1009A0001F4B1A60019B002B7FF4C4AD00241D4D2A
:1009B000C2E56FF47F739842FFF649AF00F070F81C
:1009C000019B55EC104B002B3FF4B6AD05F10043F5
:1009D0001D46B1E50024144DAEE500BFAFF3008025
:1009E00080CC92E3DD4EEF3E744C38E07A2F243F0A
:1009F0009FCDD7187ED8553F981D136EABB2833F5D
:100A00006D0203D7086BAC3FCEC482FFBDBFCE3FA3
:100A1000EF39FAFE422EE63F0000B03FC03F000033
:100A2000700000200000F07F0000F03FFFFFFFFF9C
:100A300070B555EC104B064600220023204629468F
:100A400003F0ABF920B100239FED130B336070BDB1
:100A5000C5F30A5122462B46A1F2FE3089B9C5F3EF
:100A6000130CE10F41EA4C01BCF5002FC1F3130157
:100A70004FEA440402D28C460138F2E7224661F381
:100A8000130340F2FE3161F31E5343EC102B306030
:100A9000DDE700BFAFF300800000000000000000B1
:100AA00070B555EC104B064600220023204629461F
:100AB00003F073F910B19FED0C0B70BDC5F30A5133
:100AC000881940F2FE71884205DD22220A4B9FED13
:100AD000080B1A60F1E70028EDDD60F31E5545ECC8
:100AE000104BEAE7AFF300800000000000000000B8
:100AF000000000000000F07F7000002080B584B08E
:100B000000AF78600023FB604FF0FF33BB60796873
:100B1000044802F01CFBBA68F968786802F00AFB26
:100B200000BEFDE74840000080B58AB000AFB96064
:100B30007B600346FB731346BB73BB7B012B01D069
:100B400001232AE0174ABB7B13747B687B61BB6877
:100B5000BB6100233B7700237B770123BB77012315
:100B6000FB77002387F82030002387F82130FB7BB8
:100B700087F82230002387F82330002387F82430B9
:100B800007F114031946074802F0DFFD054B064A3A
:100B90009A60044B054ADA60002318462837BD46A0
:100BA00080BD00BF080000205D270000F126000086
:100BB00080B584B000AF786039600023FB60094BDA
:100BC0001B7C002B02D14FF0FF3306E03A687968B6
:100BD000054800F023F8F860FB6818461037BD465A
:100BE00080BD00BF08000020ED0B000080B582B082
:100BF00000AF7860084B1B7C002B02D14FF0FF3315
:100C000006E0054B9B68391D0122034898470123E4
:100C100018460837BD4680BD0800002080B5A0B04A
:100C200002AFF860B9607A6000233B670023FB667F
:100C30000023FB62002387F85A3000237B62BB68E5
:100C40007B677B6F1B78002B00F0F6817B6F1B7836
:100C500087F8593097F85930252B0BD097F8592041
:100C6000FB6810469847FB6A0133FB627B6F0133D8
:100C70007B67E0E1012387F85B3000237B6600237C
:100C800087F86B3020E07B6F01337B677B6F1B78CD
:100C900087F8593097F859302F2B0FD997F85930DA
:100CA000392B0BD87A6E13469B0013445B001A460F
:100CB00097F859301344303B7B6605E07B6F013B6E
:100CC0007B67012387F86B3097F86B3083F0010363
:100CD000DBB2002BD7D106233B667B6F01337B67EA
:100CE0007B6F1B782E2B2ED100233B66002387F8C9
:100CF0006B3020E07B6F01337B677B6F1B7887F85D
:100D0000593097F859302F2B0FD997F85930392B84
:100D10000BD83A6E13469B0013445B001A4697F8B3
:100D200059301344303B3B6605E07B6F013B7B67EA
:100D3000012387F86B3097F86B3083F00103DBB247
:100D4000002BD7D102E07B6F013B7B677B6F0133C8
:100D50007B677B6F1B7887F8593097F85930642B85
:100D600024D097F85930692B20D097F85930662B4A
:100D70001CD097F85930462B18D097F85930782B5B
:100D800014D097F85930582B10D097F859306F2B52
:100D90000CD097F85930622B08D097F85930702B47
:100DA00004D097F85930752B40F0FE8097F85930F1
:100DB000642B03D097F85930692B15D17B681A1D25
:100DC0007A601B68BB6207F1280107F1300097F8D1
:100DD0005B3000930A23012202F0EFF9F86607F175
:100DE0003002FB6E13443B6797F85930662B03D0F3
:100DF00097F85930462B18D17B68073323F0070347
:100E000003F108027A60D3E90023C7E9062307F15A
:100E1000180107F130003B6E0A22FFF709FAF86665
:100E200007F13002FB6E13443B6797F85930582B9B
:100E300003D097F85930782B1CD197F85930782B7C
:100E400002D1002387F85B307B681A1D7A601B682B
:100E50007B6207F1240107F1300097F85B300093C3
:100E60001023002202F0A9F9F86607F13002FB6EA8
:100E700013443B6797F859306F2B0BD097F85930D4
:100E8000622B07D097F85930702B03D097F8593060
:100E9000752B6BD197F85930702B0DD17B681A1DCB
:100EA0007A601B687B6107F1140107F124030422B7
:100EB000184600F0C7F804E07B681A1D7A601B68CA
:100EC0007B6297F85930623B132B3BD801A252F852
:100ED00023F000BF2D0F0000450F0000450F00005C
:100EE000450F0000450F0000450F0000450F0000B2
:100EF000450F0000450F0000450F0000450F0000A2
:100F0000450F0000450F0000250F0000350F0000C1
:100F1000450F0000450F0000450F0000450F000081
:100F20003D0F0000082387F85A300CE0022387F8B1
:100F30005A3008E0102387F85A3004E00A2387F873
:100F40005A3000E000BF97F85A2007F1240107F15A
:100F5000300097F85B3000931346002202F02DF921
:100F6000F86607F13002FB6E13443B677A6E07F1B7
:100F70002C01FB6800930B46F96E202002F0FDF86F
:100F80003B6F002B54D00AE03B6F5A1E3A671B7828
:100F90001A46FB6810469847FB6A0133FB623B6FB9
:100FA0001B78002BF0D143E097F85930632B0BD11D
:100FB0007B681A1D7A601B687B65FB68786D9847B3
:100FC000FB6A0133FB6233E097F85930732B27D16A
:100FD0007B681A1D7A601B68FB65FB6D002B27D0B0
:100FE000F86D02F048FC0346FB667A6E07F12C01AF
:100FF000FB6800930B46F96E202002F0BEF80AE071
:10100000FB6D5A1CFA651B781A46FB681046984718
:10101000FB6A0133FB62FB6D1B78002BF0D107E00C
:1010200097F85920FB6810469847FB6A0133FB622A
:101030007B6F01337B6704E600BFFB6A1846783795
:10104000BD4680BDF1B5002A4BD011F0030306D098
:1010500011F8014B013A00F8014B42D0F5E710F0CE
:1010600003031BD1102A04DB103AF0C9102AF0C088
:10107000FAD2130744BF30C930C0530744BF51F8F8
:10108000044B40F8044B930744BF31F8024B20F85F
:10109000024BD30744BF0C78047022E0C3070AD484
:1010A000042A16D351F8044B043A20F8024B250CBD
:1010B00020F8025BF4E7042A0BD351F8044B043AFE
:1010C00000F8014B250A20F8025B260E00F8016BA0
:1010D000F1E7002A1EBF11F8014B00F8014B013A5D
:1010E000F7D1F1BD80B483B000AF0346FB710B466E
:1010F000BB7113467B71104B1B6B23F07F02FB7996
:1011000003F01F031A43BB795B0103F060030A4934
:1011100013430B63084B9B6823F002027B795B004F
:1011200003F00203044913438B6000BF0C37BD4634
:101130005DF8047B704700BF0000024080B582B0BC
:1011400000AF002201210720FFF7CCFF4FF44570CC
:1011500000F050F802F049FB02F012FB01F030FB06
:101160004FF08043D3F800344FF0804243F0200327
:10117000C2F800340B4B5B680B4A1360DC237B60C6
:101180007B681846FFF732FD064B5B68074A136021
:10119000064B1A68044B1B68D31A1946044801F021
:1011A000D6FFE7E7001000E01C0000202000002030
:1011B0005C40000080B483B000AF7860044A7B6874
:1011C000C2F8C03000BF0C37BD465DF8047B7047E5
:1011D0000000024080B483B000AF7860044A7B68AE
:1011E000C2F8C83000BF0C37BD465DF8047B7047BD
:1011F0000000024080B487B000AF78607B687B61FC
:10120000224BFB607B68B3F1004F38D000233B6179
:1012100030E07B69002B31D07B699BB2C3F30B03B9
:101220007B817B89002B1FD07B897B727B891B0A8A
:10123000DBB203F00F03DBB2013B3B727B7A3F2B47
:101240000CD1134BD3F8983023F001023B7A03F012
:1012500001030F491343C1F8983005E07B7A9B00E6
:10126000FA6813443A7A1A607B691B0B7B613B690D
:1012700001333B613B69012BCBD900E000BF00BFCC
:101280001C37BD465DF8047B704700BF600200401C
:101290000000024080B485B000AF03463960FB71A6
:1012A0001346BB711A4BFB60FB79072B0DD9FB79F9
:1012B0000F2B0AD83B681B029AB2FB799B00F96896
:1012C0000B4442F0FF021A601BE0BB79002B06D0F2
:1012D000FB799B00FA6813444FF000521A603B6898
:1012E000002B07D1FB799B00FA6813444FF0804232
:1012F0001A6006E0FB799B00FA6813443A68013AE9
:101300001A6000BF1437BD465DF8047B704700BF0C
:101310000003004080B582B000AF78607B68194A56
:10132000934209D07B68184A934205D07B68174ADC
:10133000934201D0012320E04FF080434FF0006240
:10134000C3F848214FF080434FF00062C3F82822D1
:101350002020FFF73FFF7B680C4A934206D10C4BDD
:101360001B690B4A43F08043136105E0084B1B697E
:10137000074A43F480431361002318460837BD46EB
:1013800080BD00BF001BB700006CDC0200D8B805B0
:101390000030014080B485B000AF78604FF08043EA
:1013A000D3F8003403F02003BB607B684B4A9342C0
:1013B00002D80023FB604EE07B68494A934202D882
:1013C0000123FB6047E07B68464A934202D8022330
:1013D000FB6040E07B68444A934202D80323FB60F1
:1013E00039E07B68414A934202D80423FB6032E033
:1013F0007B683F4A934202D80523FB602BE07B6861
:101400003C4A934202D80623FB6024E07B683A4AB8
:10141000934202D80723FB601DE07B68374A934262
:1014200002D80823FB6016E07B68354A934202D855
:101430000923FB600FE07B68324A934202D80A23FB
:10144000FB6008E07B68304A934202D80B23FB60C4
:1014500001E00C23FB604FF08043D3F800344FF0E1
:10146000804223F02003C2F80034284B1F22C3F827
:10147000E82F264BD3F8803023F00F02FB6803F0EF
:101480000F0322491343C1F88030204B02221A6017
:1014900000BF1E4BD3F8E03F03F00403002BF8D04D
:1014A0004FF08043D3F8003423F47042FB681B03F1
:1014B0009BB24FF080411343C1F800344FF080439A
:1014C000D3F800244FF08041BB681343C1F80034C7
:1014D00000BF1437BD465DF8047B7047C0D8A70035
:1014E00080B14F01408AF70100639F02C03B470370
:1014F0008014EF0340ED960400C63E0500E1F505BB
:10150000C0C2DA0680A4BF0780D1F00800400340C3
:1015100080B582B000AF78607B68134A934201D9EE
:1015200001231CE04FF48070FFF754FE4FF480104D
:10153000FFF750FE4FF08043D3F8183A4FF0804247
:1015400043F02003C2F8183A00BF084B5B6A03F06F
:101550000103002BF9D0064A7B681360002318466C
:101560000837BD4680BD00BF0048E801003001409B
:101570000000002080B400AF4FF08043D3F8183A49
:1015800003F04003002B01D0034B00E0002318467A
:10159000BD465DF8047B704740420F0080B400AF49
:1015A000074B1B6A03F08073002B02D0054B1B68AE
:1015B00000E000231846BD465DF8047B704700BF7D
:1015C000003001400000002080B400AF134BD3F87E
:1015D000B83003F04003002B06D1104BD3F89830FD
:1015E00003F00103002B12D00C4BD3F8B83003F0FA
:1015F0008003002B09D1094BD3F8983003F0010385
:10160000002B02D04FF4004303E0002301E04FF42D
:1016100000431846BD465DF8047B70470000024059
:1016200080B582B000AF00237B604FF08043D3F8D9
:10163000903203F00703032B19D801A252F823F0CC
:1016400051160000571600005F16000067160000D4
:101650000B4B7B600EE0FFF7A1FF78600AE0FFF71D
:1016600089FF786006E0FFF7AFFF786002E00023B3
:101670007B6000BF7B6818460837BD4680BD00BF51
:10168000001BB70080B588B000AF78600023FB6115
:101690000023BB614FF40070FFF78CFD4FF4000096
:1016A000FFF788FD4FF080427B681B68C2F88035E9
:1016B0004FF080427B685B68C2F888357B685B6866
:1016C0004FF0804243F48073C2F888354FF0804277
:1016D0007B689B68C2F88C357B689B684FF08042C2
:1016E00043F02003C2F88C354FF080427B681B69C1
:1016F000C2F890354FF080427B685B69C2F8943540
:101700007B685B694FF0804243F0806343F00203E3
:10171000C2F894354FF40070FFF75CFD4FF4000001
:10172000FFF758FD7B68DB6903F00203002B3ED016
:101730004FF08043D3F8943503F08053002B31D021
:10174000FFF76EFF786101F0B6FE38617A693B6998
:10175000B2FBF3F3FB601A4AFB68B2FBF3F303F549
:10176000FA73BB61FB68174A934216D80023FB61EA
:1017700006E0FB696433FB611349642000F028F83C
:1017800001F087FE034683F00103DBB2002B0ED08D
:10179000FA69BB699A42ECD309E00B49B86900F0D9
:1017A00017F804E0084941F2707000F011F87B6806
:1017B0009B69064A1360002318462037BD4680BD4A
:1017C0000084D717FF2C310180D1F00824000020BD
:1017D0002DE9B04384B000AF7860396079680029A2
:1017E00032D07968002088468146396800200A4650
:1017F000034602FB09F008FB03F10144A8FB024584
:101800004B191D46134A4FF000032046294602F0AB
:101810002CF902460B46C7E90223D7E90223012B24
:1018200002D30D48FFF76AF9D7E902014FF0000231
:101830004FF00003820842EA81728B08C7E9022355
:10184000BB68184601F056FE00BF1037BD46BDE824
:10185000B08300BF40420F007040000080B584B0EC
:1018600000AF78600023FB6009E00D4AFB6852F886
:1018700023207B689A4206D0FB680133FB60FB683B
:10188000082BF2D900E000BFFB68082B02D90548FD
:10189000FFF734F9FB6818461037BD4680BD00BF1E
:1018A000304600009C40000080B584B000AF7860F6
:1018B0000B46FB707868FFF7D1FFF8600C4AFB68B5
:1018C00032F81330184601F025FE0A4AFB6852F838
:1018D0002330184601F0F7FEFB780022194678689D
:1018E00001F062FE034618461037BD4680BD00BFBA
:1018F000544600006846000080B582B000AF104832
:10190000FFF7ACFF78600F4A7B6852F82330002B5A
:1019100002D10D48FFF7F2F80A4A7B6852F82330EB
:101920000A497A6851F82220104609497A6851F824
:1019300022201146984700BF0837BD4680BD00BF32
:101940000060084028000020E04000003046000011
:101950004C00002080B582B000AF1048FFF77EFF3A
:1019600078600F4A7B6852F82330002B02D10D4873
:10197000FFF7C4F80A4A7B6852F823300A497A68AC
:1019800051F82220104609497A6851F82220114660
:10199000984700BF0837BD4680BD00BF00700840B3
:1019A000280000201C410000304600004C000020B0
:1019B00080B582B000AF1048FFF750FF78600F4A43
:1019C0007B6852F82330002B02D10D48FFF796F8C0
:1019D0000A4A7B6852F823300A497A6851F8222073
:1019E000104609497A6851F822201146984700BFED
:1019F0000837BD4680BD00BF008008402800002099
:101A000058410000304600004C00002080B582B0F4
:101A100000AF1048FFF722FF78600F4A7B6852F84A
:101A20002330002B02D10D48FFF768F80A4A7B6883
:101A300052F823300A497A6851F8222010460949A1
:101A40007A6851F822201146984700BF0837BD46F2
:101A500080BD00BF00900840280000209441000095
:101A6000304600004C00002080B582B000AF104826
:101A7000FFF7F4FE78600F4A7B6852F82330002BA2
:101A800002D10D48FFF73AF80A4A7B6852F8233032
:101A90000A497A6851F82220104609497A6851F8B3
:101AA00022201146984700BF0837BD4680BD00BFC1
:101AB00000A0084028000020D0410000304600006F
:101AC0004C00002080B582B000AF1048FFF7C6FE82
:101AD00078600F4A7B6852F82330002B02D10D4802
:101AE000FFF70CF80A4A7B6852F823300A497A68F3
:101AF00051F82220104609497A6851F822201146EF
:101B0000984700BF0837BD4680BD00BF0060094050
:101B1000280000200C420000304600004C0000204D
:101B200080B582B000AF1048FFF798FE78600F4A8A
:101B30007B6852F82330002B02D10D48FEF7DEFF00
:101B40000A4A7B6852F823300A497A6851F8222001
:101B5000104609497A6851F822201146984700BF7B
:101B60000837BD4680BD00BF007009402800002036
:101B700048420000304600004C00002080B582B092
:101B800000AF1048FFF76AFE78600F4A7B6852F892
:101B90002330002B02D10D48FEF7B0FF0A4A7B68C4
:101BA00052F823300A497A6851F822201046094930
:101BB0007A6851F822201146984700BF0837BD4681
:101BC00080BD00BF00800940280000208442000042
:101BD000304600004C00002080B582B000AF1048B5
:101BE000FFF73CFE78600F4A7B6852F82330002BE9
:101BF00002D10D48FEF782FF0A4A7B6852F8233073
:101C00000A497A6851F82220104609497A6851F841
:101C100022201146984700BF0837BD4680BD00BF4F
:101C200000F0094028000020C042000030460000BB
:101C30004C00002080B487B000AF786018237B612F
:101C40001D233B610623FB607B6840F2B632934262
:101C500006D80023FB600A237B610F233B616EE003
:101C60007B68B3F5747F06D20123FB600C237B6194
:101C700011233B6163E07B68B3F57A7F06D80223CA
:101C8000FB600E237B6113233B6158E07B6840F2CD
:101C90000142934206D80323FB6011237B61162384
:101CA0003B614CE07B6840F21A42934206D8042321
:101CB000FB6014237B6119233B6140E07B6840F2A9
:101CC0003342934206D80523FB6016237B611B2316
:101CD0003B6134E07B6840F24C42934206D80623D5
:101CE000FB6018237B611D233B6128E07B6840F289
:101CF0006542934206D80723FB601B237B611E23AA
:101D00003B611CE07B6840F27E42934206D8082388
:101D1000FB601E237B611F233B6110E07B68B3F5F2
:101D2000936F06D20923FB601E237B611F233B6157
:101D300005E00A23FB601E237B611F233B61114BDF
:101D4000DB6923F4F84323F01F037A6902F01F02D2
:101D50001A433B699B0203F4F8430A491343CB61DE
:101D6000084B1B6923F4F012FB685B0403F4F013C7
:101D7000044913430B6100BF1C37BD465DF8047B6B
:101D8000704700BF0000024080B487B000AF034638
:101D9000FB712F4B7B612F4B3B61FB79022B30D0CA
:101DA000022B43DC002B02D0012B15D03EE02A4B46
:101DB0001B68FB60294B1B68BB60FB6803F00103D9
:101DC000002B3AD0FB685B08FB60254AFB68136177
:101DD000234ABB68536130E0224B1B68FB60224BF7
:101DE0001B68BB60FB6803F00103002B27D0FB6876
:101DF0005B08FB601A4AFB681361194ABB685361B0
:101E00001DE01A4B1B68FB60194B1B68BB60FB682D
:101E100003F00103002B14D0FB685B08FB60104A41
:101E2000FB6813610E4ABB6853610AE00C4A7B6988
:101E300013610B4A3B69536104E000BF02E000BF3D
:101E400000E000BF00BF1C37BD465DF8047B704753
:101E5000684E0C01983A8001E0FC0900E4FC09009E
:101E600000000240E8FC0900ECFC0900D8FC090075
:101E7000DCFC090080B485B000AF1E4B1B687B60A2
:101E80001D4B1B683B607B6803F00103002B03D0F4
:101E90007B685B087B6001E0184B7B603B6803F06C
:101EA0000103002B03D03B685B083B6001E0134B50
:101EB0003B603A687B689A4202D83B68BB6001E0AD
:101EC0007B68BB60BB680E4A934202D80023FB7359
:101ED00008E0BB680B4A934202D80123FB7301E080
:101EE0000223FB73FB7B18461437BD465DF8047B69
:101EF000704700BF30FD090040FD0900A07E2601AB
:101F0000A0DF0101A01D4B0180B582B000AF786059
:101F10007B680F4A934206D80020FFF735FF002068
:101F200001F07CFB10E07B680A4A934206D801204E
:101F3000FFF72AFF012001F071FB05E00220FFF707
:101F400023FF022001F06AFB00BF0837BD4680BDB9
:101F500000E1F50580A4BF0780B586B000AF7860CA
:101F60007B681B0C7B617B689BB23B6101223B69F8
:101F700002FA03F3FB603B691F2B02D90C48FEF702
:101F8000BDFD4FF080417B694833FA6841F823205A
:101F900000BF4FF080427B69403352F82320FB683A
:101FA0001340002BF5D000BF00BF1837BD4680BDE1
:101FB000FC42000080B586B000AF78607B681B0CE7
:101FC0007B617B689BB23B6101223B6902FA03F3B0
:101FD000FB603B691F2B02D90D48FEF78FFD4FF0C8
:101FE00080417B695033FA6841F8232000BF4FF0ED
:101FF00080427B69403352F82320FB681340FA6823
:102000009A42F4D000BF00BF1837BD4680BD00BF64
:102010001C43000080B586B000AFF860B9607A60FC
:10202000FB68002B05D0BB68002B02D07B68002B1F
:1020300002D16A48FEF762FDFB68002B05D0BB6841
:10204000002B02D07B68002B01D10423C2E00121C8
:10205000F868FFF729FC78617B69002B01D07B6968
:10206000B8E0BB685B7A002B23D0FB68D3F8003E56
:1020700043F00112FB68C3F8002EFB68D3F8083E5A
:1020800023F47062FB68C3F8082EFB68D3F8082EAF
:10209000BB685B7B1B0203F470631A43FB68C3F8E5
:1020A000082EFB68D3F8083E43F00102FB68C3F832
:1020B000082EBB681B7A002B23D0FB68D3F8003EA8
:1020C00043F00212FB68C3F8002EFB68D3F8083E09
:1020D00023F47022FB68C3F8082EFB68D3F8082E9F
:1020E000BB689B7B1B0403F470231A43FB68C3F893
:1020F000082EFB68D3F8083E43F00202FB68C3F8E1
:10210000082EBB681B791B0103F03002BB685B79AA
:102110009B0103F040031A43BB689B799B0003F0CB
:102120000C031A43BB68DB79DB039BB21A43BB6821
:10213000DB7B5B08DBB2DB0203F400631A43BB68A2
:10214000DB7B9B0303F480431A43BB681B7C1B03AC
:1021500003F480531A43BB68DB7ADB01DBB21A431A
:10216000BB681B7B5B0203F40073134343F0010263
:10217000FB681A60BB68DB7A002B17D0BB681B6852
:102180004FF41652B2FBF3F101FB03F3D31A002B09
:1021900009D1BB681B684FF41652B2FBF3F35A1E09
:1021A000FB681A620FE041F2516313E0BB681B68E1
:1021B0007A681946F86800F053F878617B69002B5B
:1021C00001D07B6906E0BB689B7A1946F86801F08C
:1021D00088FA002318461837BD4680BD3C430000EE
:1021E00080B582B000AF78607B68002B02D11B48BD
:1021F000FEF784FC14220021786801F003FB7B6861
:102200004FF4E1321A607B6800221A717B68002269
:102210005A717B6801229A717B680022DA717B68AF
:1022200000221A727B6800225A727B680022DA72DE
:102230007B6800225A737B6800229A737B680022B5
:10224000DA737B6800229A727B6800221A747B68BA
:1022500000221A7300BF0837BD4680BD8C430000C2
:1022600080B58CB000AFF860B9607A604FF0FF3392
:10227000FB620F23BB624FF0FF337B62FB68002BD6
:1022800005D0BB68002B02D07B68002B02D15448DC
:10229000FEF734FCFB68002B05D0BB68002B02D096
:1022A0007B68002B01D1042395E0FB681B6803F4D5
:1022B0000063002B10D0FB681B6803F48043002BE5
:1022C00000F088807A68BB68B2FBF3F3BB61BB693E
:1022D0005A1EFB681A627DE0BB68424AA2FB0323D8
:1022E0005A0913465B001344FB61BB6A3B6242E040
:1022F0003B6A082B03D8FA6AFB699A423FD97A688D
:1023000013469B0013445B0019463B6A0133BA68CD
:1023100002FB03F3B1FBF3F3053B334AA2FB0323B8
:10232000DB08BB61BB69B3F5803F20D23B6A013358
:10233000BA69013202FB03F37A68B2FBF3F37B6103
:10234000BA687B699A4203D27A69BB68D31A02E001
:10235000BA687B69D31A3B613A69FB6A9A4207D231
:102360003B69FB623B6ABB62BB697B6200E000BF0A
:102370003B6A013B3B623B6A032BB9D800E000BFDC
:10238000BB6A01337A6A013202FB03F37A68B2FB5B
:10239000F3F37B61BA687B699A4203D27A69BB68BE
:1023A000D31A02E0BA687B69D31A3B613A69FB69C8
:1023B0009A4202D941F251630DE07B6AB3F5803F46
:1023C00002D341F2516306E0FB68BA6A9A62FB6885
:1023D0007A6A1A62002318463037BD4680BD00BFB6
:1023E000B04300001F85EB51CDCCCCCC80B584B080
:1023F00000AFF860B9607A60FB68002B02D0BB6860
:10240000002B02D11B48FEF779FBFB68002B02D0A2
:10241000BB68002B01D1042327E0FB68D3F8003E02
:1024200003F00103002B15D104231EE000BFFB685D
:10243000D3F8043E03F02003002BF8D0BB681B78D0
:102440001A46FB68C3F8202EBB680133BB607B686B
:10245000013B7B607B68002BE8D100BFFB689B6879
:1024600003F00803002BF9D0002318461037BD46AF
:1024700080BD00BF0444000080B586B000AFF860A6
:10248000B9607A6000237B61FB68002B02D0BB68D7
:10249000002B02D13848FEF731FBFB68002B02D03D
:1024A000BB68002B01D1042361E0FB68D3F8003E38
:1024B00003F00203002B54D1012358E000BFFB6856
:1024C000D3F8043E03F04003002BF8D0FB68D3F8A8
:1024D000043E03F00203002B13D0FB68D3F8003E48
:1024E00043F40032FB68C3F8002EFB68D3F8043EC7
:1024F00043F00202FB68C3F8042E41F24D637B6196
:1025000034E0FB689B683B61FB689A683B691A434F
:10251000FB689A603B6903F48043002B02D041F2D0
:1025200050637B613B6903F40053002B02D041F2FE
:102530004F637B613B6903F40043002B02D041F2FF
:102540004E637B617B69002B0FD1FB68D3F8303E73
:10255000DAB2BB681A70BB680133BB607B68013BB1
:102560007B607B68002BA9D100E000BF7B69184627
:102570001837BD4680BD00BF3C44000080B500AFA9
:10258000154BD3F88830144A43F47003C2F88830EE
:10259000114BD3F88830104A43F00F03C2F888304B
:1025A0000D4BD3F88C300C4A43F4406343F00303E3
:1025B000C2F88C30084B094A9A604FF080430022E1
:1025C000C3F808234FF080437822C3F8202201F09B
:1025D000A4F800BF80BD00BF00ED00E000000000D7
:1025E00080B588B000AF786039607B68002B02D17D
:1025F0003A48FEF783FA3B68002B02D13848FEF7D1
:102600007DFA3B689B7B072B02D93648FEF776FAAA
:102610003B689B7B1A46344B53F82230002B02D187
:102620003248FEF76BFA07F108031846FFF7D8FDAA
:102630003B685B68BB603B681B7B002B03D13B683E
:102640005B7B002B01D001233B753B681B7A022B7F
:1026500002D102233B7308E03B681B7A032B02D1B3
:1026600003233B7301E000233B733B685B7A012B40
:1026700002D101237B7301E000237B733B689B7ACB
:10268000002B14BF01230023DBB23B743B68DB7AD1
:10269000002B14BF01230023DBB27B7400237B7566
:1026A0000023BB753B689B7B1A460F4B53F82200F7
:1026B0003B681A6807F108031946FFF7ABFCF8619D
:1026C000FB69002B04D0F86901F02EF8034600E006
:1026D000002318462037BD4680BD00BF744400006B
:1026E00098440000BC4400008C46000020450000D7
:1026F00080B586B000AFF860B9607A60FB68002BE7
:1027000002D11248FEF7FAF9BB68002B02D110483B
:10271000FEF7F4F97B68002B02D10E48FEF7EEF9C4
:10272000FB687B617B691B781A460B4B53F82230A0
:102730007A68B9681846FFF79FFE3861386900F07B
:10274000F3FF034618461837BD4680BD60450000BC
:1027500084450000A44500008C46000080B586B08A
:1027600000AFF860B9607A60FB68002B02D11048B6
:10277000FEF7C4F9BB68002B02D10E48FEF7BEF984
:102780007B68002B02D10C48FEF7B8F9FB687B612F
:102790007B691B781A46094B53F822307A68B9686E
:1027A0001846FFF723FE002318461837BD4680BDA4
:1027B000C8450000EC4500000C4600008C460000B7
:1027C00080B582B000AF4FF44570FEF713FD0848A6
:1027D000FFF7F0FB074B7B607B6801224FF4E13190
:1027E0000020FEF7A1F900BF0837BD4680BD00BF3D
:1027F0000B000100001BB70080B483B000AF78600D
:10280000044A7B68C2F8C83000BF0C37BD465DF88B
:10281000047B70470000024080B588B000AF2020E4
:10282000FFF7EAFF2B48FEF775FD2B48FEF7E2FCA9
:102830004FF48070FFF7E0FF4FF48010FFF7DCFFEC
:102840002648FEF765FE4FF08043D3F8183A4FF064
:10285000804243F02003C2F8183A214B1B6A204AF9
:1028600043F0807313621F48FFF74EFB1D48FEF7CD
:1028700091FD4FF40370FEF7BDFC4FF40070FFF7BD
:10288000BBFF4FF40000FFF7B7FF3B4620220021BB
:10289000184600F0B7FF144B3B6008237B60012310
:1028A000BB60124B7B610F4BBB610223FB613B465C
:1028B0001846FEF7E7FE002201212020FEF7EAFC81
:1028C0000B48FEF797FC0B4B064A1A6000BF2037F7
:1028D000BD4680BD001BB700089110000024F40025
:1028E0000030014080D1F008507F200000580210D5
:1028F000089120000400002080B584B000AF0D20B6
:1029000000F044FF4FF48373FB60FB680A22002150
:102910000C4800F053FF40F20113BB60BB681D225E
:102920000021084800F04AFF40F201137B607B68F9
:102930001E220021034800F041FF00BF1037BD46B2
:1029400080BD00BF0010004010B5174A1749002095
:1029500000F0D8FF4FF480734FF4806200211248DA
:1029600000F06AFF124A1349012000F0CBFF4FF438
:1029700080734FF4806200210D4800F05DFF0E4B24
:102980001B68022B0EDD0D4A0A49022000F0BAFF37
:10299000BDE810404FF480734FF480620021074877
:1029A00000F04ABF10BD00BF74000020B046000018
:1029B000B0000020B2460000AC460000EC00002051
:1029C0002DE9704355EC104B0023064600222046AB
:1029D000294601F0E2F9034648BBC5F30A51A1F2CA
:1029E000FF32002AA94629DB332A2CDC132A15DD05
:1029F0004FF0FF32A1F21341CA4024EA02031A4603
:102A00002046294698464B4600F02EFA04460D46CD
:102A100045EC104BC6E90089BDE870830C48C5F34E
:102A2000130140FA02F20A4062F31309E7E74FF09C
:102A300000084FF0000944464D46E9E74FF0000812
:102A40004FF00009E4E7A04600250024E0E700BFBE
:102A50000000F0FF2DE9F041D5688046EB020E46FC
:102A60001446576905D5384601F078FA45F0100547
:102A7000A061124B2B408BB13846A16901F077FA67
:102A8000002806DAE3684FF0FF3043F08003E3608C
:102A900011E025F4003525F01005E5603246414689
:102AA000384601F06AFA20F00043F61AA36933446D
:102AB000A3610028E6D1BDE8F08100BF100002004C
:102AC000F8B5044638B905460A4B0B4E1F68A742B5
:102AD00005DC2846F8BDBDE8F84000F0A6BF30464A
:102AE00000F0A3FF002818BF4FF0FF3501343C363B
:102AF000EDE700BFAC460000740000202DE9F8436C
:102B0000C6683B4B044633400D469046D0F81490BF
:102B10006BB1484601F025FA074640B9B8F1010FFC
:102B200009D0B8F1020F31D0B8F1000F07D0022759
:102B30003846BDE8F883204600F05CF80544002DD7
:102B4000F5DBB30404D52368E26A9A4238BFE36236
:102B5000A069A8420EDC2368E26A934238BF13469C
:102B600022691918891AA94204DB216B00EB010CB8
:102B7000AC452CDC0023C4E9013346F02006A562F5
:102B800026F4032626F04006E660D1E7484601F029
:102B9000E5F9B0F1000CE26804DA42F080020127A6
:102BA000E260C5E72168A369E06A81422CBF5B1837
:102BB0001B1821699206A3EB010303D5A26A934275
:102BC000B8BF13466345ACBFED186544B7E72D1A8F
:102BD000B00744BF691AA160F10744BF9B1AEB1A02
:102BE0002A4448BF6360226026F02006C8E700BF81
:102BF00003001000C3689A0705D121220D4B4FF046
:102C0000FF301A60704703F020021B0309D512B190
:102C1000806A013870470368826900691344181A92
:102C2000F7E70AB1806A7047036882690069134454
:102C3000181A7047700000202DE9F04381EA030460
:102C4000C1F30A550E469C4640F2FF7E04F0004454
:102C500055B1754504D0C3F30A570FB1774517D165
:102C6000730013F5001F5CD24FEA4C0313F5001FED
:102C700054D34FEA4C0313F5001F53D82B4B0020BD
:102C80001E4250D01CEA030F4DD044EA03013AE043
:102C9000C1F3130600213D44570D47EAC3270B46F5
:102CA00046F48016D202A6FB02EC47F00047E6FB92
:102CB00007C3A2FB0062E7FB002112EB0E0241F109
:102CC000000111EB0C0143F10000B0F5801F42EA56
:102CD00096031AD2491841EAD371A5F5806540419F
:102CE0005B00DA0F521840F10000B3F1004F40F2E0
:102CF000FD7308BF22F001029D4209D844EA000397
:102D0000104603EB0551BDE8F083A5F2FF35E8E777
:102D1000002D03DB44F0FF4444F4E004002021468E
:102D2000F1E7A6D000200249EDE700BF0000F07FE8
:102D30000000F87F2DE9F041C1F30A5E8C461E4683
:102D400040F2FF7883EA0105BEF1000F11D149007E
:102D5000700010F5001F18D8414A46EA0C031342D0
:102D600013D01CEA020305F0004565D12946184638
:102D700057E0C64504D0C3F30A570FB1474506D103
:102D80004FEA4C0111F5001FE2D9002065E0430D28
:102D900043EAC123510DC00241EAC621D20290424A
:102DA00043F0004341F0004173EB01064FF0350C56
:102DB0004FF00006AEEB070728BF40084FEA52026B
:102DC00028BF40EAC37042EAC17232BF07F2FD3742
:102DD0005B0807F2FE374908904273EB010E4FEA99
:102DE000460604D3801A63EB010346F0010600187F
:102DF0005B41BCF1210F08BF3446BCF1010CEBD1A3
:102E0000904273EB010102D3013608BF013440F256
:102E1000FD739F4205F0004505D8304605EB075588
:102E20002919BDE8F0810020002FA4BF45F0FF451F
:102E300045F4E0052946F4E716EA020302D145EA23
:102E4000020194E710F5001F4FF0000002D045EAA0
:102E50000201E6E711F5001FECD10249E1E700BFEE
:102E60000000F07F0000F87FF0B5174693EA0102FA
:102E70000E4605469E4607D503F100453A462B46C9
:102E8000BDE8F04000F0CAB88B4203D8874209D3AE
:102E90008B4207D102F1004256408EEA020E2A46CA
:102EA0003D46174640F2FF7CC6F30A524FEA1E50D9
:102EB00062454FEA1654C0EB165104D1330300F0BB
:102EC000A1800020A2E0914204D1002900F0A0805E
:102ED000314689E0C6F31302CEF313031F2942F4EF
:102EE000801243F4801350D8203023FA01FC001BD9
:102EF000A2EB0C0227FA01FC03FA00F141EA0C01F3
:102F0000691A38BF02F1FF3217FA00F30D4603D0F9
:102F10005B424D1E01B9013A12F4C01F51D1E90FB5
:102F2000DB0F41EA420243EA450352EA03016FD054
:102F3000023C510B23D0510C01BF190F41EA021280
:102F40001B01043CD10C01BF990F41EA82029B0096
:102F5000023C110D02BFD90F41EA420204F1FF34D5
:102F60004FEAD67108BF5B00B1EBD42F4FF00000E1
:102F700006BF184602EB045106F00041F0BD190EE1
:102F800041EA02221B02083CD3E7352919D820392F
:102F900023FA01F0281AC1F1200638BF02F1FF32EE
:102FA00027FA01F1B3403F06054643EA010306D084
:102FB00043F0FF035B42451E18B9013A01E0002BC4
:102FC000F8D1D10209D4013C66050FD0E90F41EADE
:102FD0004202D90F41EA45055B00002B22F4801222
:102FE0004FEA045405DB11192846C7E7304621058E
:102FF000C4E7013508BF0132B3F1004F08BF25F027
:103000000105F0E7002000297FF462AF0249B5E72F
:1030100000200021B2E700BF0000F87FF0B51E4697
:1030200096EA010F1C468E460746134606D506F162
:1030300000452B46BDE8F040FFF716BF8E429CBF0F
:103040000E46A64640F2FF7C98BF1746C6F30A52CA
:1030500098BF03464FEA1E5162454FEA1650C1EB36
:10306000165404D1320306D00020314936E0944290
:1030700003D1002C58D0314654E0C6F3130CCEF3E4
:1030800013021F2C4CF4801542F4801227D82031F3
:10309000091A22FA04FC27FA04F48A4022439A18F7
:1030A0006544134628BF013507FA01F2A9022BD562
:1030B000013308BF01350AB923F002036FF3130689
:1030C00006EB5506720012F5001F2BBF431C31465C
:1030D0000020ED0734BF45EA53001905F0BD352C3B
:1030E000E4D8203C22FA04F159180B46C4F120011F
:1030F00002FA01F227FA04F428BF013522433F0601
:1031000018BF42F0FF02D1E7002A00F1FF3407DACE
:10311000013308BF0135B2F1004F08BF23F00103AE
:1031200005EB04511846D9E7204606F00041D5E7E3
:103130000000F87F80B485B000AFF860B9607A60B5
:10314000002318461437BD465DF8047B70470FB462
:1031500080B582B000AF00237B6007F114033B60B1
:1031600039683869FDF724FD78607B6818460837B0
:10317000BD46BDE8804004B0704780B586B000AF62
:10318000B9607A603B600346FB73BB687B610BE010
:10319000FA7B3B6A104698473B681B685A1C3B68A1
:1031A0001A607B6901337B617A697B689A42EFDB45
:1031B00000BF00BF1837BD4680BD80B48FB000AFE0
:1031C000F860B9607A603B600023FB62FB68BB6219
:1031D000BB6A5A1CBA6200221A7000237B6000236B
:1031E0007B6200233B620023FB6100237B6300239F
:1031F000BB6100233B6300237B61BB681B687B636F
:103200007B6B002B30D1BB6A30221A70FB6A013312
:10321000FB62FB6A2CE03B687A6BB2FBF3F3BB61A9
:103220003B68BA6902FB03F37A6BD31A3B633B6BCF
:10323000092B03D83B6B30333B630AE097F84030EF
:10324000002B01D0412200E061223B6B13440A3B7A
:103250003B63BB697B63BB6A5A1CBA623A6BD2B2EE
:103260001A70FB6A0133FB627B6B002BD3D1FB6AC4
:1032700018463C37BD465DF8047B704708B5FCF73F
:10328000D5FF08BD08B5FCF7D1FF08BD08B5FCF7B0
:10329000CDFF08BD08B5FCF7C9FF08BD08B5FCF7B0
:1032A000C5FF08BD08B5FCF7C1FF08BD08B5FCF7B0
:1032B000BDFF08BD08B5FCF7B9FF08BD08B5FCF7B0
:1032C000B5FF08BD08B5FCF7B1FF08BD08B5FCF7B0
:1032D000ADFF08BD08B5FCF7A9FF08BD08B5FCF7B0
:1032E000A5FF08BD08B5FCF7A1FF08BD08B5FEF7AE
:1032F00003FB08BD08B5FEF72DFB08BD08B5FEF7BA
:1033000057FB08BD08B5FEF781FB08BD08B5FEF701
:10331000ABFB08BD08B5FEF7D5FB08BD08B5FEF749
:10332000FFFB08BD08B5FEF729FC08BD08B5FCF792
:103330007DFF08BD08B5FCF779FF08BD08B5FCF7AF
:1033400075FF08BD08B5FCF771FF08BD08B5FCF7AF
:103350006DFF08BD08B5FCF769FF08BD08B5FCF7AF
:1033600065FF08BD08B5FCF761FF08BD08B5FCF7AF
:103370005DFF08BD08B5FCF759FF08BD08B5FCF7AF
:1033800055FF08BD08B5FCF751FF08BD08B5FCF7AF
:103390004DFF08BD08B5FCF749FF08BD08B5FCF7AF
:1033A00045FF08BD08B5FCF741FF08BD08B5FCF7AF
:1033B0003DFF08BD08B5FCF739FF08BD08B5FCF7AF
:1033C00035FF08BD08B5FCF731FF08BD08B5FCF7AF
:1033D0002DFF08BD08B5FCF729FF08BD08B5FCF7AF
:1033E00025FF08BD08B5FCF721FF08BD08B5FCF7AF
:1033F0001DFF08BD08B5FCF719FF08BD08B5FCF7AF
:1034000015FF08BD08B5FCF711FF08BD08B5FCF7AE
:103410000DFF08BD08B5FCF709FF08BD08B5FCF7AE
:1034200005FF08BD08B5FCF701FF08BD08B5FCF7AE
:10343000FDFE08BD08B5FCF7F9FE08BD08B5FCF7B0
:10344000F5FE08BD08B5FCF7F1FE08BD08B5FCF7B0
:10345000EDFE08BD08B5FEF7BFFB08BD04207146B0
:10346000084202D0EFF3098001E0EFF308808169A0
:103470000A884BF6AB639A4200D0FEE702318161C5
:103480000168012901D0002100E02021016070477E
:1034900000BF80B400AF4FF08043D3F8843503F011
:1034A0000103002B14BF01230023DBB21846BD46E5
:1034B0005DF8047B704780B483B000AF01237B606C
:1034C0004FF08043D3F8803503F40023002B0AD15A
:1034D0004FF08043D3F88835DBB27B607B68002BEC
:1034E00001D101237B607B6818460C37BD465DF82F
:1034F000047B704780B483B000AF78607B68184667
:10350000A0F101000028FBD100BF0C37BD465DF8DB
:10351000047B704780B485B000AF0346FB80FB8816
:103520001B0AFB60FB88DBB24FF0804101229A400E
:10353000FB68883341F8232000BF1437BD465DF88F
:10354000047B704780B483B000AF78600B46FB709B
:10355000FB78002B01D1012320E0FB78042B0ED84F
:103560007B68D3F8F82FFB78033322FA03F303F0D8
:103570000103002B14BF01230023DBB20EE0FB7814
:10358000052B0AD17B68D3F8F83F03F08003002BAA
:1035900014BF01230023DBB200E0002318460C37E0
:1035A000BD465DF8047B704780B584B000AFF8601D
:1035B0000B467A60FB72FB7A1946F868FFF7C2FF88
:1035C000034683F00103DBB2002B01D0032321E08B
:1035D000FB68D3F8F83F03F00803002B09D0FB6821
:1035E000D3F8F83F03F00702FB7A9A4201D0012397
:1035F00010E07B68002B08D0FB7A43F00803DBB2B5
:103600001A46FB68C3F8F82F03E0FA7AFB68C3F8A0
:10361000F82F002318461037BD4680BD80B584B012
:1036200000AF0346FB71FEF725FC0346FB73FB7BF3
:10363000002B02D0022B16D02BE0FB79012B02D0FD
:10364000022B05D009E040F27E40FEF7F3FA09E0D4
:103650004FF49660FEF7EEFA04E040F23340FEF7D6
:10366000E9FA00BF2BE0FB79012B02D0022B05D039
:1036700009E040F20140FEF7DDFA09E040F21A40AD
:10368000FEF7D8FA04E04FF47A70FEF7D3FA00BFE1
:1036900015E0FB79012B02D0022B05D009E040F2A6
:1036A0004C40FEF7C7FA09E040F27E40FEF7C2FA4E
:1036B00004E04FF47A70FEF7BDFA00BF00BF00BF10
:1036C0001037BD4680BD80B582B000AF78607868A5
:1036D000FEF742FC7868FEF76DFC00BF0837BD4678
:1036E00080BD80B483B000AF78600B46FB70FB7880
:1036F000002B06D07B685B6843F480727B685A605D
:1037000005E07B685B6823F480727B685A6000BFC9
:103710000C37BD465DF8047B704780B400AF00BF36
:10372000BD465DF8047B704780B483B000AF78601D
:103730007B68002B01D1002301E042F6AF731846ED
:103740000C37BD465DF8047B704780B584B000AF90
:103750007860396039687868FEF742FF0346FB817C
:10376000FB89002B01D0FB8906E07B68BB603B68CE
:103770009A7BBB681A70002318461037BD4680BD7F
:1037800080B500AFFFF748F800BF80BD80B485B0BA
:1037900000AF0346FB80FB881B0AFB60FB88DBB2A3
:1037A0004FF0804101229A40FB68883341F8232082
:1037B00000BF1437BD465DF8047B704780B485B008
:1037C00000AFF8607B600B46FB721346BB72F97A60
:1037D000BA7AFB6849010A44796843F8221000BFAD
:1037E0001437BD465DF8047B704780B500AFFFF726
:1037F00083F800BF80BD08B5FFF7A6F8BDE8084014
:10380000FDF79CBC00F08EBBA8B14FF0805340F890
:103810000C3C50F8042C72B11368B3F1805F0AD1EC
:1038200050F8083C516803330B4440F8083C936857
:1038300040F8043CEDE7704770B5C468A50708D0B0
:10384000B2F5007F11D0B2F5806F04D0B2F5807F61
:103850000BD0012008E0012300F124011443016191
:103860000160C361C460002070BD6FF07F455E1EC3
:10387000AE42F3D3EDE7034610B59A071C4615D1C7
:10388000234654F8042BA2F1013121EA020111F080
:10389000803FF5D0D1B299B112F47F4F0ED012F41F
:1038A0007F0F14BF23460333013003E01A4612F89A
:1038B000011B09B9181A10BD1346DEE70233F3E7FE
:1038C0000133F1E7C36810B523F020038269C360B8
:1038D000836A04469A420ED000F048F8E36823F465
:1038E000405323F0100343F01003E360A36AA36185
:1038F0002369E3622360E36823F4804323F04003F9
:10390000E36010BD70B50D4606461046144600F043
:1039100056F82B78722B17D0772B18D0612B23D128
:10392000082348F2020215F8011F2B2912D0622940
:1039300015D01B07E260666104D5022200212046F3
:10394000FFF7DCF8204670BD00230122EBE70423DB
:103950000222E8E742F0030243F00203E3E742F009
:10396000040243F00103DEE70024EBE738B5044628
:10397000C36805690168C26A23F40020E06003F0AF
:103980008200022802D04FF0FF3038BDDB030CD597
:10399000914238BF11468D4209D10023A360E368EC
:1039A000E56223F480332560E3600020EDE72246E2
:1039B0002846491BFFF74EF80028EED0E3E7F0B5A4
:1039C000D0E90467C5680446A90789B020D02A0752
:1039D00016D4FFF775F8384600F0BDFA2B0502D56E
:1039E0003046FFF711FF6FF3150515F1A54F07D10D
:1039F00020226846216A00F0BDFA684600F00BF804
:103A00003C2200212046FFF7FDFE002009B0F0BD5A
:103A10004FF0FF30FAE710B50446FFF72CFF0146E0
:103A20002046BDE8104000F09FBAC36870B513F09F
:103A30000306044611D09B0611D5856AFFF742FFA5
:103A4000E368204623F44053E360FFF78FFF002232
:103A5000064629462046FFF751F8304670BD836977
:103A600005681D440369ED1AEAE75FF0000C30B504
:103A70001C0022D112006FD0914206D305460846A1
:103A8000002100F06FF80446284600F06BF80A4663
:103A90002146BDE830401CF0404F08BF704703D5B9
:103AA0004942404261F100015FEA8C0C38BF704727
:103AB0005B42524263F10003704742D41C0C04BFC6
:103AC0001B040CF1100C13F07F4F04BF1B020CF110
:103AD000080C13F0704F04BF1B010CF1040C13F021
:103AE000404F04BF0CF1020C5FEA83035CBF0CF192
:103AF000010C5B00CCF1200E22FA0EF4234302FAF3
:103B00000CF200FA0CF520FA0EF001FA0CF4204346
:103B100021FA0EF114461A4600F024F8A4FB002303
:103B2000AA1A71EB03033CBF1B190138CCF1200E1C
:103B300022FA0CF203FA0EF4224323FA0CF30021CA
:103B4000A7E7821A71EB03033CBF02460B464FF016
:103B5000000141F100009CE700200021BDE8304059
:103B600000F03DB80423B1EB122F09D2090241EA5B
:103B700010610002013B08BF7047B1EB122FF5D373
:103B80000018494134BF9142891A4041494134BF2C
:103B90009142891A4041494134BF9142891A4041BA
:103BA000494134BF9142891A4041494134BF914251
:103BB000891A4041494134BF9142891A40414941E3
:103BC00034BF9142891A4041494134BF9142891A18
:103BD0004041A3F1010313F00F0FD2D1704770479A
:103BE0000246C80240EA525040F21E42A2EB115275
:103BF00040F00040FF2A20FA02F011D912F4E06FE1
:103C000001D14042704711F0804009D04A0012F5BE
:103C1000001F04D86FF0004000EBD1707047002007
:103C2000704770B50C46C4F30A53C3F5836206327D
:103C3000002A4FEAC121C3F5876541EA505105F1D9
:103C40000605B8BFC00241F00041BDBF20FA05F231
:103C5000A3F21E4001FA00F021FA02F0B6BF1043B1
:103C60000021E940002C4FEA440602DA404268B9DC
:103C70004942FF2D09D914F080400AD016F5001FE3
:103C800006D8E40F601E00F1004170BDC943F0E7A3
:103C900000200146F9E7F0B1030C0CBF000401F16C
:103CA0008071030E0CBF000201F50001030F0CBF71
:103CB000000101F58001830F0CBF800001F50011A8
:103CC0000028ACBF400001F5801101EBE023420564
:103CD00010461946704700200021704730B550EA61
:103CE000010403463CD019B10B46014602F10072B3
:103CF000180C03BF080C40EA0343090402F1807268
:103D0000180E03BF080E40EA0323090202F5000261
:103D1000180F03BF080F40EA0313090102F58002E0
:103D2000980F03BF880F40EA8303890002F5001251
:103D3000002BA3BFC80F490040EA430302F58012DD
:103D400011F5806128BF0133480508BF21F40061E7
:103D500002EBE3255B0543EAD1242046294630BD2A
:103D600000200021FBE710F0004118BF404201F1A4
:103D70008041FFF790BF4FF08041FFF78CBF0029D3
:103D800001F0004203DA434228B94942184602F1E1
:103D90008042FFF7A3BFC943F8E730B51D460C4684
:103DA0004B0040EA4501114351EA440109D0AC42BD
:103DB00009D1904207D113F5001F8CBF00200120CC
:103DC00030BD0120FCE70020FAE730B50D461C4667
:103DD00055EA040301460BD4630013F5001F1DD8F8
:103DE000A54219D31AD190422CBF0020012030BD2A
:103DF000680010F5001F11D8630013F5001F0DD8DF
:103E00000B4313431843F2D0A54205D806D1914283
:103E100094BF00200120EAE70120E8E70020E6E760
:103E200030B50D461C4655EA040301464FEA4500ED
:103E30000AD410F5001F1CD8A54218D819D19142F8
:103E400094BF0020012030BD10F5001F11D8630081
:103E500013F5001F0DD80B4313431843F3D0A542AD
:103E600005D306D191422CBF00200120EBE70120B1
:103E7000E9E70020E7E730B50C46194654EA0103AC
:103E80000BD44B0013F5001F1BD88C421BD318D149
:103E900090428CBF0020012030BD650015F5001F49
:103EA0000FD84B0013F5001F0BD88C420BD801D153
:103EB000904208D2034313432B430CBF0120002040
:103EC000EAE70020E8E70120E6E730B50C461946AE
:103ED00054EA01034FEA44050AD415F5001F1DD822
:103EE0008C421DD81AD1904234BF0020012030BD31
:103EF00015F5001F12D84B0013F5001F0ED88C4289
:103F00000ED304D190428CBF00200120EFE7034381
:103F100013432B430CBF01200020E8E70020E6E715
:103F20000120E4E7034613F0030F0ED101F0FF0177
:103F300041EA012141EA0141043A24BF43F8041B4C
:103F4000B2F10402F9D202F10402013A24BF03F8EB
:103F5000011BFAE770474FF0FF3070474FF0FF301A
:103F600070474FF0FF3070474FF0FF3070474FF011
:103F7000FF3070474FF0FF30704710467047FFFF2B
:103F800000009C17239C8EBC000050896510713C7A
:103F9000000070B0467C6C3C000004EE771574BCE9
:103FA000000046054C32863C0000F01109DA7A3CEC
:103FB0000000C8B677B0893C0000DC4A2EA6883CD9
:103FC000000000000000F03FDA90A4A2AFA4EE3F92
:103FD00087A4FBDC1858ED3F9C5285DD9B19EC3F14
:103FE000ADD35A999FE8EA3F90F0A38291C4E93F8C
:103FF000DBA02A42E5ACE83F8701EB7314A1E73F61
:10400000CD3B7F669EA0E63F295448DD07ABE53FE8
:10401000272A36D5DABFE43F2234124CA6DEE33F2E
:1040200015B7310AFE06E33F3862756E7A38E23F13
:104030007B517D3CB872E13F0F89F96C58B5E03F88
:10404000000000000000E03F41535345525420451A
:1040500052524F522022202573200A0068656C6C52
:104060006F20776F726C642025642E0D0A000000AB
:1040700066736C5F636F6D6D6F6E5F61726D2E63E3
:104080003A323133203A20636F756E74203C3D2004
:1040900055494E5433325F4D4158000066736C5F92
:1040A000666C6578636F6D6D2E633A3935203A2002
:1040B00069203C202875696E7433325F7429465339
:1040C0004C5F464541545552455F534F435F464C04
:1040D0004558434F4D4D5F434F554E54000000002F
:1040E00066736C5F666C6578636F6D6D2E633A31D5
:1040F0003732203A20735F666C6578636F6D6D4967
:10410000727148616E646C65725B696E7374616E26
:1041100063655D20213D204E554C4C0066736C5FFD
:10412000666C6578636F6D6D2E633A313836203A70
:1041300020735F666C6578636F6D6D49727148615D
:104140006E646C65725B696E7374616E63655D202D
:10415000213D204E554C4C0066736C5F666C657853
:10416000636F6D6D2E633A323030203A20735F6694
:104170006C6578636F6D6D49727148616E646C65D2
:10418000725B696E7374616E63655D20213D204EC4
:10419000554C4C0066736C5F666C6578636F6D6D33
:1041A0002E633A323134203A20735F666C6578634F
:1041B0006F6D6D49727148616E646C65725B696E9A
:1041C0007374616E63655D20213D204E554C4C003B
:1041D00066736C5F666C6578636F6D6D2E633A32E3
:1041E0003238203A20735F666C6578636F6D6D4975
:1041F000727148616E646C65725B696E7374616E36
:1042000063655D20213D204E554C4C0066736C5F0C
:10421000666C6578636F6D6D2E633A323433203A85
:1042200020735F666C6578636F6D6D49727148616C
:104230006E646C65725B696E7374616E63655D203C
:10424000213D204E554C4C0066736C5F666C657862
:10425000636F6D6D2E633A323537203A20735F6697
:104260006C6578636F6D6D49727148616E646C65E1
:10427000725B696E7374616E63655D20213D204ED3
:10428000554C4C0066736C5F666C6578636F6D6D42
:104290002E633A323731203A20735F666C6578635B
:1042A0006F6D6D49727148616E646C65725B696EA9
:1042B0007374616E63655D20213D204E554C4C004A
:1042C00066736C5F666C6578636F6D6D2E633A32F2
:1042D0003835203A20735F666C6578636F6D6D4981
:1042E000727148616E646C65725B696E7374616E45
:1042F00063655D20213D204E554C4C0066736C5F1C
:1043000072657365742E633A3438203A206269749A
:10431000506F73203C2033327500000066736C5F71
:1043200072657365742E633A3733203A206269747C
:10433000506F73203C2033327500000066736C5F51
:1043400075736172742E633A313938203A2021280E
:10435000284E554C4C203D3D206261736529207CE0
:104360007C20284E554C4C203D3D20636F6E666985
:104370006729207C7C20283055203D3D20737263C6
:10438000436C6F636B5F487A2929000066736C5F2A
:1043900075736172742E633A333230203A204E5571
:1043A0004C4C20213D20636F6E6669670000000061
:1043B00066736C5F75736172742E633A34343120A6
:1043C0003A202128284E554C4C203D3D20626173F7
:1043D0006529207C7C20283055203D3D2062617578
:1043E00064726174655F42707329207C7C20283080
:1043F00055203D3D20737263436C6F636B5F487A59
:104400002929000066736C5F75736172742E633ABC
:10441000363133203A202128284E554C4C203D3D42
:10442000206261736529207C7C20284E554C4C20ED
:104430003D3D2064617461292900000066736C5F52
:1044400075736172742E633A363839203A20212808
:10445000284E554C4C203D3D206261736529207CDF
:104460007C20284E554C4C203D3D206461746129D0
:104470002900000066736C5F616461707465725F2F
:1044800075736172742E633A323830203A20686155
:104490006E646C650000000066736C5F616461703F
:1044A0007465725F75736172742E633A32383120AD
:1044B0003A20636F6E6669670000000066736C5F88
:1044C000616461707465725F75736172742E633AB2
:1044D000323832203A20636F6E6669672D3E696E0E
:1044E0007374616E6365203C202873697A656F661A
:1044F00028735F55736172744164617074657242B0
:1045000061736529202F2073697A656F662855537A
:104510004152545F54797065202A29290000000017
:1045200066736C5F616461707465725F75736172EC
:10453000742E633A323833203A20735F55736172B8
:104540007441646170746572426173655B636F6E20
:104550006669672D3E696E7374616E63655D000008
:1045600066736C5F616461707465725F75736172AC
:10457000742E633A333835203A2068616E646C6576
:104580000000000066736C5F616461707465725F47
:1045900075736172742E633A333836203A20646141
:1045A0007461000066736C5F616461707465725F52
:1045B00075736172742E633A333837203A206C6514
:1045C0006E6774680000000066736C5F6164617000
:1045D0007465725F75736172742E633A343036207D
:1045E0003A2068616E646C650000000066736C5F61
:1045F000616461707465725F75736172742E633A81
:10460000343037203A2064617461000066736C5F57
:10461000616461707465725F75736172742E633A60
:10462000343038203A206C656E67746800FFFFFFF5
:10463000006008400070084000800840009008407A
:1046400000A0084000600940007009400080094057
:1046500000F009400B010C010D010E010F011001CA
:10466000110112011C02FFFF0B0001000C000100F0
:104670000D0001000E0001000F00010010000100FC
:1046800011000100120001001C000200006008403F
:1046900000700840008008400090084000A00840DA
:1046A00000600940007009400080094003000000DC
:0446B000720077001D
:0846B4000024F400001BB70014
:040000030000018177
:00000001FF
